{
  "contractName": "CoinFlip",
  "abi": [
    {
      "constant": true,
      "inputs": [],
      "name": "balance",
      "outputs": [
        {
          "internalType": "uint256",
          "name": "",
          "type": "uint256"
        }
      ],
      "payable": false,
      "stateMutability": "view",
      "type": "function"
    },
    {
      "constant": true,
      "inputs": [],
      "name": "owner",
      "outputs": [
        {
          "internalType": "address",
          "name": "",
          "type": "address"
        }
      ],
      "payable": false,
      "stateMutability": "view",
      "type": "function"
    },
    {
      "constant": false,
      "inputs": [
        {
          "internalType": "uint256",
          "name": "prediction",
          "type": "uint256"
        }
      ],
      "name": "settleBet",
      "outputs": [
        {
          "internalType": "uint256",
          "name": "",
          "type": "uint256"
        }
      ],
      "payable": true,
      "stateMutability": "payable",
      "type": "function"
    },
    {
      "constant": false,
      "inputs": [],
      "name": "addFunds",
      "outputs": [
        {
          "internalType": "uint256",
          "name": "",
          "type": "uint256"
        }
      ],
      "payable": true,
      "stateMutability": "payable",
      "type": "function"
    },
    {
      "constant": false,
      "inputs": [],
      "name": "withdrawAll",
      "outputs": [
        {
          "internalType": "uint256",
          "name": "",
          "type": "uint256"
        }
      ],
      "payable": false,
      "stateMutability": "nonpayable",
      "type": "function"
    }
  ],
  "bytecode": "0x6080604052336000806101000a81548173ffffffffffffffffffffffffffffffffffffffff021916908373ffffffffffffffffffffffffffffffffffffffff1602179055506103aa806100536000396000f3fe60806040526004361061004a5760003560e01c806316fd381a1461004f578063853828b6146100915780638da5cb5b146100bc578063a26759cb14610113578063b69ef8a814610131575b600080fd5b61007b6004803603602081101561006557600080fd5b810190808035906020019092919050505061015c565b6040518082815260200191505060405180910390f35b34801561009d57600080fd5b506100a6610200565b6040518082815260200191505060405180910390f35b3480156100c857600080fd5b506100d16102b8565b604051808273ffffffffffffffffffffffffffffffffffffffff1673ffffffffffffffffffffffffffffffffffffffff16815260200191505060405180910390f35b61011b6102dd565b6040518082815260200191505060405180910390f35b34801561013d57600080fd5b5061014661035d565b6040518082815260200191505060405180910390f35b600060015434111561016d57600080fd5b6000610177610363565b9050828114156101e557346001600082825403925050819055503373ffffffffffffffffffffffffffffffffffffffff166108fc600234029081150290604051600060405180830381858888f193505050501580156101da573d6000803e3d6000fd5b5060019150506101fb565b3460016000828254019250508190555060009150505b919050565b60008060009054906101000a900473ffffffffffffffffffffffffffffffffffffffff1673ffffffffffffffffffffffffffffffffffffffff163373ffffffffffffffffffffffffffffffffffffffff161461025b57600080fd5b6000600154905060006001819055503373ffffffffffffffffffffffffffffffffffffffff166108fc829081150290604051600060405180830381858888f193505050501580156102b0573d6000803e3d6000fd5b508091505090565b6000809054906101000a900473ffffffffffffffffffffffffffffffffffffffff1681565b60008060009054906101000a900473ffffffffffffffffffffffffffffffffffffffff1673ffffffffffffffffffffffffffffffffffffffff163373ffffffffffffffffffffffffffffffffffffffff161461033857600080fd5b6000341161034557600080fd5b34600160008282540192505081905550600154905090565b60015481565b60006002428161036f57fe5b0690509056fea265627a7a72315820e2bbf3803cfdcf6a8796a8e05a0a425d2e6fa23e98e077632fdc724ab9e40b9164736f6c634300050c0032",
  "source": "import \"./Ownable.sol\";\r\npragma solidity 0.5.12;\r\n\r\ncontract CoinFlip is Ownable{\r\n    uint public balance;\r\n    \r\n    modifier validateBet(){\r\n        require(msg.value <= balance);\r\n        _;\r\n    }\r\n\r\n    function flipCoin() private view returns(uint) {\r\n        return now % 2;\r\n    }\r\n\r\n    function settleBet(uint prediction) public payable validateBet returns(uint) {\r\n        uint outcome = flipCoin();\r\n        if(outcome == prediction) {\r\n            balance -= msg.value;\r\n            msg.sender.transfer(msg.value * 2);\r\n            return 1;\r\n        } else {\r\n            balance += msg.value;\r\n            return 0;            \r\n        }\r\n    }\r\n\r\n    function addFunds() public onlyOwner payable returns(uint) {\r\n        require(msg.value > 0);\r\n        balance += msg.value;\r\n        return balance;\r\n    }\r\n\r\n    function withdrawAll() public onlyOwner returns(uint) {\r\n       uint toTransfer = balance;\r\n       balance = 0;\r\n       msg.sender.transfer(toTransfer);\r\n       return toTransfer;\r\n   }\r\n\r\n}",
  "sourcePath": "C:/Users/cpontrelli/desktop/ethereum-course-201/coin-flip/contracts/CoinFlip.sol",
  "compiler": {
    "name": "solc",
    "version": "0.5.12+commit.7709ece9.Emscripten.clang"
  },
  "schemaVersion": "3.0.16",
  "updatedAt": "2020-09-19T21:52:01.942Z",
  "devdoc": {
    "methods": {}
  },
  "userdoc": {
    "methods": {}
  }
}