{
  "contractName": "CoinFlip",
  "abi": [
    {
      "anonymous": false,
      "inputs": [
        {
          "indexed": false,
          "internalType": "uint256",
          "name": "result",
          "type": "uint256"
        }
      ],
      "name": "coinFlipped",
      "type": "event"
    },
    {
      "anonymous": false,
      "inputs": [],
      "name": "flipLost",
      "type": "event"
    },
    {
      "anonymous": false,
      "inputs": [],
      "name": "flipWon",
      "type": "event"
    },
    {
      "constant": true,
      "inputs": [],
      "name": "balance",
      "outputs": [
        {
          "internalType": "uint256",
          "name": "",
          "type": "uint256"
        }
      ],
      "payable": false,
      "stateMutability": "view",
      "type": "function"
    },
    {
      "constant": true,
      "inputs": [],
      "name": "owner",
      "outputs": [
        {
          "internalType": "address",
          "name": "",
          "type": "address"
        }
      ],
      "payable": false,
      "stateMutability": "view",
      "type": "function"
    },
    {
      "constant": false,
      "inputs": [
        {
          "internalType": "uint256",
          "name": "prediction",
          "type": "uint256"
        }
      ],
      "name": "settleBet",
      "outputs": [],
      "payable": true,
      "stateMutability": "payable",
      "type": "function"
    },
    {
      "constant": false,
      "inputs": [],
      "name": "addFunds",
      "outputs": [
        {
          "internalType": "uint256",
          "name": "",
          "type": "uint256"
        }
      ],
      "payable": true,
      "stateMutability": "payable",
      "type": "function"
    },
    {
      "constant": false,
      "inputs": [],
      "name": "withdrawAll",
      "outputs": [
        {
          "internalType": "uint256",
          "name": "",
          "type": "uint256"
        }
      ],
      "payable": false,
      "stateMutability": "nonpayable",
      "type": "function"
    }
  ],
  "bytecode": "0x6080604052336000806101000a81548173ffffffffffffffffffffffffffffffffffffffff021916908373ffffffffffffffffffffffffffffffffffffffff160217905550610441806100536000396000f3fe60806040526004361061004a5760003560e01c806316fd381a1461004f578063853828b61461007d5780638da5cb5b146100a8578063a26759cb146100ff578063b69ef8a81461011d575b600080fd5b61007b6004803603602081101561006557600080fd5b8101908080359060200190929190505050610148565b005b34801561008957600080fd5b5061009261025b565b6040518082815260200191505060405180910390f35b3480156100b457600080fd5b506100bd610313565b604051808273ffffffffffffffffffffffffffffffffffffffff1673ffffffffffffffffffffffffffffffffffffffff16815260200191505060405180910390f35b610107610338565b6040518082815260200191505060405180910390f35b34801561012957600080fd5b506101326103b8565b6040518082815260200191505060405180910390f35b60003411801561015a57506001543411155b61016357600080fd5b60008114806101725750600181145b61017b57600080fd5b60006101856103be565b90508181141561021a577f6b9ced427018a4a76bf211597eb47a05dc6c5cc1a3d5e49e6b93bfa0a66d512b60405160405180910390a1346001600082825403925050819055503373ffffffffffffffffffffffffffffffffffffffff166108fc600234029081150290604051600060405180830381858888f19350505050158015610214573d6000803e3d6000fd5b50610257565b7fb0685c89c2cd1d36b01edd9e2b9c5cc712086e1ffd6eef1a4c29d06e342bdb7060405160405180910390a1346001600082825401925050819055505b5050565b60008060009054906101000a900473ffffffffffffffffffffffffffffffffffffffff1673ffffffffffffffffffffffffffffffffffffffff163373ffffffffffffffffffffffffffffffffffffffff16146102b657600080fd5b6000600154905060006001819055503373ffffffffffffffffffffffffffffffffffffffff166108fc829081150290604051600060405180830381858888f1935050505015801561030b573d6000803e3d6000fd5b508091505090565b6000809054906101000a900473ffffffffffffffffffffffffffffffffffffffff1681565b60008060009054906101000a900473ffffffffffffffffffffffffffffffffffffffff1673ffffffffffffffffffffffffffffffffffffffff163373ffffffffffffffffffffffffffffffffffffffff161461039357600080fd5b600034116103a057600080fd5b34600160008282540192505081905550600154905090565b60015481565b600080600242816103cb57fe5b0690507fdd9e2bb02715082d7ad3303c337c653141faddaa5690c22930da715c8361dbfd816040518082815260200191505060405180910390a1809150509056fea265627a7a723158202e316cc34a444a352722f5b488aee169aaef2e81c53f07bf50496adb3cf56ed664736f6c634300050c0032",
  "source": "import \"./Ownable.sol\";\r\npragma solidity 0.5.12;\r\n\r\ncontract CoinFlip is Ownable{\r\n    uint public balance;\r\n\r\n    event coinFlipped(uint result);\r\n    event flipWon();\r\n    event flipLost();\r\n    \r\n    modifier validateBet(){\r\n        require(msg.value > 0 && msg.value <= balance);\r\n        _;\r\n    }\r\n\r\n    function flipCoin() private returns(uint) {\r\n        uint result = now % 2;\r\n        emit coinFlipped(result);\r\n        return result;\r\n    }\r\n\r\n    function settleBet(uint prediction) public payable validateBet {\r\n        require(prediction == 0 || prediction == 1);\r\n        uint outcome = flipCoin();\r\n        if(outcome == prediction) {\r\n            emit flipWon();\r\n            balance -= msg.value;\r\n            msg.sender.transfer(msg.value * 2);\r\n        } else {\r\n            emit flipLost();\r\n            balance += msg.value;     \r\n        }\r\n    }\r\n\r\n    function addFunds() public onlyOwner payable returns(uint) {\r\n        require(msg.value > 0);\r\n        balance += msg.value;\r\n        return balance;\r\n    }\r\n\r\n    function withdrawAll() public onlyOwner returns(uint) {\r\n       uint toTransfer = balance;\r\n       balance = 0;\r\n       msg.sender.transfer(toTransfer);\r\n       return toTransfer;\r\n   }\r\n\r\n}",
  "sourcePath": "C:/Users/cpontrelli/desktop/ethereum-course-201/coin-flip/contracts/CoinFlip.sol",
  "compiler": {
    "name": "solc",
    "version": "0.5.12+commit.7709ece9.Emscripten.clang"
  },
  "schemaVersion": "3.0.16",
  "updatedAt": "2020-09-23T05:08:45.491Z",
  "devdoc": {
    "methods": {}
  },
  "userdoc": {
    "methods": {}
  }
}